:020000040800F2
:10000000080B00209D110008C1020008C30200086F
:10001000C7020008CB020008CF0200080000000061
:10002000000000000000000000000000D3020008F3
:10003000D502000800000000D7020008D90200081D
:10004000B7110008B7110008B7110008B711000870
:10005000B7110008B7110008B7110008B711000860
:10006000B7110008B7110008B7110008B711000850
:10007000B7110008B7110008B7110008B711000840
:10008000B7110008B7110008B7110008B711000830
:10009000B7110008B7110008B7110008B711000820
:1000A000B7110008B7110008B7110008B711000810
:1000B000B7110008B7110008B7110008B711000800
:1000C000B7110008B7110008B7110008B7110008F0
:1000D000B7110008090A0008110A0008B711000842
:1000E000B7110008B7110008B7110008B7110008D0
:1000F000B7110008B7110008B7110008B7110008C0
:10010000B7110008B7110008B7110008B7110008AF
:10011000B7110008B7110008B7110008B71100089F
:10012000B7110008B7110008B7110008B71100088F
:10013000DFF80CD001F04CFE0048004745010008F4
:10014000080B002000BF00BF00F0BEFF4FF4A0600E
:1001500001F0BAFD00F070FF4FF4165000F09CFA69
:1001600093E04FF4FA7000F0ECFF012000F013FD73
:100170004649088046488078464948704448C178D6
:10018000444881704FF4FA7000F0DBFF002000F06B
:1001900002FD414908803E4881783E48C1703C4894
:1001A000C1783C4801714FF4FA7000F0CAFF022098
:1001B00000F0F1FC394908803548817835484171B3
:1001C0003348C178334881714FF4FA7000F0B9FFB9
:1001D000012000F0C2FC32490880324881782D4865
:1001E000C1713048C1782B4801724FF4FA7000F0A9
:1001F000A8FF002000F0B1FC2B4908802948817835
:10020000244841722748C178224881724FF4FA701D
:1002100000F097FF002000F06CFC24490880214882
:1002200081781C48C1721F48C1781A4801734FF485
:10023000FA7000F086FF022000F075FC1C4908806F
:100240001C488178134841731A48C178114881735A
:100250004FF4FA7000F075FF022000F07EFC1649A2
:100260000880104881780B48C1730E48C17809484E
:10027000017410200749087010480078012804D143
:1002800000F087FE00200D4908706AE73600002064
:10029000920300209C05002034000020380000203C
:1002A000300000208C0200202E0000202C000020B6
:1002B0002A000020800000203200002042000020A0
:1002C000704700BFFEE700BFFEE700BFFEE700BFCC
:1002D000FEE7704770477047704700000CB500207C
:1002E000019000906C48006840F480306A490860D2
:1002F00000BF6948006800F4003000900198401C7D
:100300000190009818B90198B0F5A06FF1D162483A
:10031000006800F4003010B10120009001E00020DE
:1003200000900098012843D15C48006840F010001C
:100330005A4908600846006820F003000860084633
:10034000006840F002000860534840685249486025
:100350000846406848600846406840F4806048604D
:100360000846406820F47C1048600846406840F425
:10037000E81048600846006840F08070086000BFE0
:100380004548006800F000700028F9D042484068F5
:1003900020F00300404948600846406840F00200F1
:1003A000486000BF3C48406800F00C000828F9D1C4
:1003B0000CBD10B5FFF792FF10BD10B536480068B0
:1003C00040F001003449086008464068344908405C
:1003D0003149486008460068324908402E490860A3
:1003E0000846006820F4802008600846406820F431
:1003F000FE0048604FF41F008860FFF7DAFF4FF0FF
:1004000000602949086010BD10B5002100200022BD
:10041000214B5B6803F00C0121B1042906D00829A7
:1004200028D107E0214B224C236027E01F4B204CB2
:10043000236023E0184B5B6803F47010164B5B6875
:1004400003F48032022303EB904022B9194B43435B
:10045000174C23600DE0104B5B6803F4003323B1AD
:10046000144B4343124C236003E0104B4343104CA6
:10047000236003E00D4B0E4C236000BF00BF064B12
:100480005B68C3F303130C4CE15C094B1B68CB4066
:10049000074C236010BD0000001002400020024005
:1004A0000000FFF8FFFFF6FE08ED00E000127A0002
:1004B0000000002000093D00040000202DE9F0416B
:1004C00005460E4617460024012F0FD100BF0BE052
:1004D00000BF40211D4801F09DFB0028F9D0295D97
:1004E0001A4801F029FB641CB442F1DB022F1DD134
:1004F0000221174800F071FF012000F022FE0024C5
:100500000BE000BF4021134801F084FB0028F9D024
:10051000295D104801F010FB641CB442F1DB01209E
:1005200000F00FFE02210A4800F059FFBDE8F081FB
:1005300010B501210848006800F090F810BD10B512
:1005400000210548006800F089F810BD003801401E
:100550000008014000440040180000203CB502465D
:10056000002000238CB2ADF80440102005E021FAF1
:1005700000F404F00103441CE0B2202801DA012B4E
:10058000F5D1A0F111044FF0804505EB84240094CF
:10059000DDE90045C2E900453CBD10B50246002139
:1005A000002400BF05E042FA01F000F00104481CFD
:1005B000C1B2102901DA012CF5D1481E83B2D8B29C
:1005C00010BDC2684A40C26070472F4989694FF424
:1005D0008032821A930A04229A4011432A4A916176
:1005E00070473CB5024600200023284D30CDCDE9B0
:1005F000004521B300BF05E041FA00F404F0010317
:10060000441CE0B2042801DA012BF5D18DF8040076
:100610000820002305E041FA00F404F00103441C23
:10062000E0B2102801DA012BF5D1092808D00E28F4
:1006300006D0A0F10A04A40204F18044009408E06A
:10064000092802D1124C009403E00E2801D1114C6C
:100650000094DDE90045C2E900453CBD7CB5044697
:100660000D4621466846FFF779FF012D05D1BDF8FB
:100670000410009800F0B1FE04E0BDF804100098EA
:1006800000F0ADFE7CBD000000100240881F000895
:10069000002C01400034014010B586B00446012111
:1006A000042001F0A9F80121480401F0B2F8012169
:1006B000880401F0AEF84FF40070ADF81400032088
:1006C0008DF8160018208DF8170005A9D24800F003
:1006D000D7FD4FF48060ADF8140004208DF81700AA
:1006E00005A9CD4800F0CCFD25208DF800000120A3
:1006F0008DF8010002208DF8020001208DF8030022
:10070000684601F0E6FA0420ADF8140003208DF8E5
:10071000160018208DF8170005A9BF4800F0B0FD9D
:100720000820ADF8140004208DF8170005A9BA4878
:1007300000F0A6FD26208DF8000003208DF80100B2
:100740008DF8020001208DF80300684601F0C1FA1F
:100750004FF48060ADF8140003208DF816001820C7
:100760008DF8170005A9AD4800F08AFD4FF4006030
:10077000ADF8140004208DF8170005A9A74800F073
:100780007FFD27208DF8000004208DF80100032054
:100790008DF8020001208DF80300684601F099FAF7
:1007A00001940020ADF80800ADF80A00ADF80C0087
:1007B000ADF810000C20ADF80E0001A9984801F02A
:1007C000C2F8012240F22551954801F054F9012167
:1007D000934801F044F901A9924801F0B4F80122CC
:1007E00040F225518F4801F046F901218D4801F072
:1007F00036F901A98C4801F0A6F8012240F22551F2
:10080000894801F038F90121874801F028F906B03C
:1008100010BD10B586B004460121480400F0F9FF70
:100820000121042000F0E8FF0420ADF814000320AB
:100830008DF8160018208DF8170005A9764800F0ED
:100840001FFD0820ADF8140004208DF8170005A93D
:10085000714800F015FD26208DF8000003208DF86A
:1008600001008DF8020001208DF80300684601F0B8
:1008700030FA01940020ADF80800ADF80A00ADF898
:100880000C00ADF810000C20ADF80E0001A9654871
:1008900001F059F8012240F22551624801F0EBF8CD
:1008A0000121604801F0DBF806B010BD70B50546C7
:1008B0000C465B48844202D15C480078B8B959487C
:1008C000844202D15948407888B95748844202D1BD
:1008D0005648807858B95648844202D15348C07867
:1008E00028B9544884420DD15048007950B103E0F2
:1008F0002946204601F020F94021204601F08AF9DE
:100900000028F5D070BDF0B503460D461646002709
:1009100029460A2E03D0002008702846F0BD33B9BE
:10092000302001F8010B002008702846F6E7002B64
:1009300003DA2D2001F8010B5B423F4A0DE093FBE7
:10094000F2F404B937B104F1300001F8010B04FBF3
:10095000123301270A2092FBF0F2002AEFDC00207C
:1009600008702846DAE770B506460C460025314681
:100970005520FFF79BFF3146AA20FFF797FF20780D
:100980003146FFF793FF60783146FFF78FFFA0787D
:100990003146FFF78BFF2078FF3061780844A1785B
:1009A0000844C4F8040100BF0DE0E11C485D314675
:1009B000FFF77CFFE01C405DD4F804110844C4F844
:1009C0000401681C85B26078A842EEDC00250BE0CB
:1009D000C5F10302D200D4F804111141C8B2314666
:1009E000FFF764FF681C85B2042DF1DB70BD13496D
:1009F0000860704770B504460D46E0B20F490968BB
:100A0000FFF754FF204670BD10B500F0CBF910BDC4
:100A100010B500F0D1F810BD00080140000C0140F5
:100A20000038014000440040004800401C00002005
:100A3000004C00400050004000E1F505240000207B
:100A400070B503460C464FF6FF71002212E09E5C23
:100A5000714000250AE001F0010626B149104AF272
:100A60000106714000E049106E1CF5B2082DF2DB62
:100A7000561CB2B2A242EADB081240EA0126B0B22A
:100A800070BD2DE9F04106460F4614461D46F74855
:100A9000067047702012F5498870CC7028120871D2
:100AA0004D710621F148FFF7CBFF80464FEA282021
:100AB000EE49887181F8078002220821EB48FFF790
:100AC000FDFCBDE8F08110B5044601232246032158
:100AD0000420FFF7D6FF10BD0146002091F8042145
:100AE00032B1002281F804218878CA7842EA0020D5
:100AF000704770B504462046FFF7E5FFC82000F0B8
:100B000020FBDB48FFF7E8FF0546C82000F019FB93
:100B1000284670BD10B5044601232246032108462D
:100B2000FFF7AFFF10BD70B504462046FFF7F2FF98
:100B3000C82000F006FBCF48FFF7CEFF0546C820CF
:100B400000F0FFFA284670BD10B504460123224686
:100B500003211846FFF795FF10BD70B505462846DE
:100B6000FFF7F2FFC82000F0ECFAC348FFF7B4FF2C
:100B700004462146C1A001F03DF9C82000F0E1FA89
:100B8000204670BD10B504460223224603211846B4
:100B9000FFF777FF10BD70B504462046FFF7F2FF60
:100BA000C82000F0CEFAB848FFF796FF0546C820E7
:100BB00000F0C7FA284670BD10B540F22551B34881
:100BC00001F03EF8002879D0B04800F0B9FFC4B277
:100BD000AF480078062872D2DFE800F0035172892E
:100BE000AAB7012C21D0022C2DD0032C0FD0042C1D
:100BF00037D19F48A7490860A7480470A4480078E7
:100C0000401CA3490870A3480068047035E0994867
:100C1000A0490860A04804709D480078401C9C4989
:100C200008709C480068047027E093489949086060
:100C30009948047096480078401C9549087095487A
:100C40000068047019E09048924908609248047066
:100C50008F480078401C8E4908708E4800680470E8
:100C60000BE000208A4908708C4908708C49087094
:100C70008C4908808749086000BF00BF90E0032CC2
:100C800010D1854800788349096808708248007847
:100C900085490870084644707D480078401C7C49AE
:100CA00008700AE000207A4908707C4908707C4985
:100CB00008707C4908807749086071E071E06EE057
:100CC0007748047000787349096848707448007860
:100CD000754988706E480078401C6D4908707048EE
:100CE000007818B908460078401C087058E06B4836
:100CF00000786B49097888420EDA6B4967480078BA
:100D0000C01C0C54654801780078401C634A107080
:100D100060480068801C4454604800786049097845
:100D2000884204D15A480078401C5949087037E07D
:100D30005C4804805A480078C01C5B490C545448F5
:100D40000078401C524908702AE05648007844EA6E
:100D5000002050490968A1F8020151480078001D9F
:100D600051490C544E480178C91C4F48FFF768FEA2
:100D700048490968B1F80211884204D10120454967
:100D8000096881F80401002041490870434908704E
:100D900043490870434908803E49086000E000BFAD
:100DA00000BF10BD10B540F22551404800F048FF8B
:100DB000002859D03D4800F0C3FEC4B23C4800783A
:100DC000082852D2DFE800F00423408494A4B4BC85
:100DD000012C0AD13748384908602F48047034483C
:100DE0000078401C324908700FE00020304908703C
:100DF0003249087032490870324908703249087027
:100E0000324908802C49086000BF00BFBFE0032CB6
:100E10000AD101202449087008464470244800780B
:100E2000401C234908700EE0002021490870234926
:100E30000870234908702349087023490870234922
:100E400008801D490860A2E01D48047000781A4916
:100E5000096808701A4800781349887014480078A7
:100E6000401C1349087092E092E08FE0430000209C
:100E700086010020800000208C02002052535F5722
:100E8000443A25640D0A000092030020004400400B
:100E90004B00002050000020280000204C000020C3
:100EA0004D0000204E000020980400200038014032
:100EB000540000203A0000205C0000205600002072
:100EC0005500002057000020580000205A00002044
:100ED0004D48047000784D49096848704A480078C8
:100EE0004B49C8704B480078401C4A4908704EE096
:100EF0004948047000784549096888704648007878
:100F00004349087143480078401C424908703EE05C
:100F10004248047000783D490968C8703F4800782D
:100F20003B4948713B480078401C3A4908702EE024
:100F30003B48048037480078401C3649087026E05A
:100F40003748007844EA0020304909688880062143
:100F50002F48FFF775FD2D4909688988884205D11A
:100F600001202A49096888712E4908700020294902
:100F70000870254908702C490870274908702749CE
:100F80000870274908802149086000BF00BF00BFE2
:100F900010BD70B500242548254908600120254969
:100FA000087003204870224800680078887008E0C4
:100FB0001F480068401C015DE01C1E4A1154601C63
:100FC000C4B21B4800680078A042F1DC18480068F1
:100FD0000078C11C1748FFF733FD05462912144855
:100FE00000680078C01C134A11541148006800784A
:100FF000001D15540E4800680078411D01220D485F
:10100000FFF75CFA70BD0000560000205C00002075
:1010100098040020540000205700002058000020B1
:101020005A00002042000020550000209C050020AE
:10103000600000209E06002008B501210C2000F071
:10104000DBFB10208DF8030003208DF80200102038
:10105000ADF800006946194800F012F91021174850
:1010600000F0BDF92020ADF800006946144800F0FA
:1010700007F92021124800F0B2F90121084600F0DA
:10108000BBFB01210F4800F0CCF94FF40040ADF854
:1010900000006946094800F0F3F84FF400410748A2
:1010A00000F09DF90220ADF800006946034800F009
:1010B000E7F80221014800F092F908BD000801405C
:1010C000000C01400002300010B56FF0040000F089
:1010D0004AFE2E4800682E49B0FBF1F02D490870F9
:1010E0000846007800EB4001C1EBC0104FF6FF71DD
:1010F00001EAC0002849088010BD0146254A12783F
:101100004A434FF0E0235A6100229A611A4612695D
:1011100042F001021A6100BF4FF0E022106900F0B6
:1011200001021AB100F48032002AF5D04FF0E0221B
:10113000126922F001024FF0E0231A6100229A6145
:1011400070470146144A12884A434FF0E0235A611F
:1011500000229A611A46126942F001021A6100BF28
:101160004FF0E022106900F001021AB100F4803261
:10117000002AF5D04FF0E022126922F001024FF070
:10118000E0231A6100229A617047000000000020ED
:1011900000127A00640000206600002006488047A4
:1011A00006480047FEE7FEE7FEE7FEE7FEE7FEE74C
:1011B000FEE7FEE7FEE7FEE7BB030008310100089B
:1011C00010B50446CC48844208D10121042000F027
:1011D0002DFB0021042000F029FB46E0C748844293
:1011E00008D10121082000F021FB0021082000F097
:1011F0001DFB3AE0C248844208D10121102000F0D2
:1012000015FB0021102000F011FB2EE0BD488442A8
:1012100008D10121202000F009FB0021202000F04E
:1012200005FB22E0B848844208D10121402000F0AB
:10123000FDFA0021402000F0F9FA16E0B34884429C
:1012400008D10121802000F0F1FA0021802000F077
:10125000EDFA0AE0AE48844207D10121801500F082
:10126000E5FA0021A01500F0E1FA10BD10B501214A
:10127000084600F0DBFA0021012000F0D7FA10BD8B
:101280002DE9F0410246002500260020002300241D
:10129000002791F803C00CF00F0591F803C00CF083
:1012A000100CBCF1000F03D091F802C04CEA050508
:1012B00091F800C0BCF1000F31D0146800202BE081
:1012C0004FF0010C0CFA00F3B1F800C00CEA030671
:1012D0009E4220D183004FF00F0C0CFA03F7BC4361
:1012E00005FA03FC4CEA040491F803C0BCF1280F92
:1012F00006D14FF0010C0CFA00FCC2F814C00AE051
:1013000091F803C0BCF1480F05D14FF0010C0CFA65
:1013100000FCC2F810C0401C0828D1D31460B1F8FA
:1013200000C0BCF1FF0F34DD546800202EE000F156
:10133000080C4FF0010808FA0CF3B1F800C00CEAF1
:1013400003069E4221D183004FF00F0C0CFA03F7E5
:10135000BC4305FA03FC4CEA040491F803C0BCF159
:10136000280F05D100F1080C08FA0CF8C2F8148017
:1013700091F803C0BCF1480F07D100F1080C4FF001
:10138000010808FA0CF8C2F81080401C0828CED3D7
:101390005460BDE8F0814FF6FF7101800221817039
:1013A0000421C17070470246002093680B400BB1C6
:1013B000012000E0002070470146886880B2704735
:1013C00002460020D3680B400BB1012000E0002052
:1013D00070470146C86880B270470161704741613B
:1013E00070470AB1016100E041617047C160704718
:1013F0004FF480320A43826181618261826982692D
:10140000704702460020434B18684FF6807318401F
:1014100040EA021008433F4B186070473E49C861DC
:101420007047F0B50A46002300240021002500F093
:101430000046B6F1004F02D1364EF16901E0354E5B
:101440007168C0F3034583B200F44016B6F5401F3F
:1014500008D121F070612F4E766826F070662D4F0E
:101460007E6012E000F48016B6F5801F06D10326D8
:1014700006FA05F4A14341F0706106E0460D36011D
:1014800003FA06F6B14341F0706122B1460D360110
:1014900003FA06F6314300F00046B6F1004F02D1E0
:1014A0001C4EF16101E01B4E7160F0BD30B50022B1
:1014B0008B071C0F0F2303FA04F2164B08338C1012
:1014C00053F824309343134C08348D1044F82530DE
:1014D00023468C1053F824308C07240F00FA04F4B0
:1014E00023430C4C08348D1044F8253030BD0A4994
:1014F000DC3108607047000000080140000C01402A
:10150000001001400014014000180140001C01407F
:10151000002001400000014000002042DF48006838
:1015200040F00100DD49086008464068DC49084099
:10153000DA49486008460068DA490840D749086037
:101540000846006820F4802008600846406820F4BF
:10155000FE0048604FF41F0088607047CF4909685B
:1015600021F48031CD4A11601146096821F48021AF
:101570001160B0F5803F03D0B0F5802F0ED106E0AA
:10158000C649096841F48031C44A116007E0C34983
:10159000096841F4A021C14A116000E000BF00BF0A
:1015A000704710B501460022002300204A11012A8D
:1015B00002D1BA4C236806E0022A02D1B74C236A52
:1015C00001E0B64C636A01F01F02012494401C4004
:1015D0000CB1012000E0002010BD38B500200090C3
:1015E0000024002500BF3120FFF7DBFF05460098EF
:1015F000401C00900098B0F5A06F01D0002DF2D0F3
:101600003120FFF7CEFF08B1012400E0002420467E
:1016100038BD01460020A14A106820F0F80040EAD9
:10162000C10010607047A049086070470246002062
:101630009A4B586820F47C1042EA01031843974BF8
:101640005860704798490866704701460020934AE1
:10165000506820F003000843506070478F4840688E
:1016600000F00C007047014600208C4A506820F0C2
:10167000F00008435060704701460020874A5068D8
:1016800020F4E06008435060704701460020834A20
:10169000506820F4605040EAC1005060704729B1A2
:1016A0007E4A527A02437D4B5A7204E07B4A527A58
:1016B00082437A4B5A7270477B49D8310860704731
:1016C00001460020754A506820F4404008435060AD
:1016D00070470021714A20321170704A82F8201040
:1016E000012802D004280AD104E001216B4A2032EB
:1016F000117005E00521694A2032117000E000BF39
:1017000000BF70476949086070476449096A01432E
:10171000624A11627047654944390860704730B5C4
:1017200000210022002400235C4D6D6805F00C01AF
:1017300021B1042905D0082923D105E05C4D0560BD
:1017400022E05B4D05601FE0544D6D6805F470129A
:10175000524D6D6805F48034022505EB92421CB9A8
:10176000544D554305600BE04C4D6D6805F4003554
:101770001DB1504D5543056002E04D4D5543056088
:1017800002E04B4D056000BF00BF444D6D6805F0A1
:10179000F0010909484D6B5C0568DD4045603F4D2F
:1017A0006D6805F4E061090A434D6B5C4568DD40F6
:1017B00085603A4D6D6805F46051C90A3E4D6B5C19
:1017C0004568DD40C560354D6D6805F44041890BC5
:1017D0003A4D6B5CC568B5FBF3F5056130BD29B1C9
:1017E0002E4A526902432D4B5A6104E02B4A52693A
:1017F00082432A4B5A61704729B1284A92690243B1
:10180000264B9A6104E0254A92698243234B9A61F0
:10181000704729B1214AD2690243204BDA6104E0C2
:101820001E4AD26982431D4BDA61704729B11B4AB7
:10183000D2680243194BDA6004E0184AD268824346
:10184000164BDA60704729B1144A12690243134BF0
:101850001A6104E0114A12698243104B1A61704701
:1018600012494039086070470F49C86470470B49F6
:10187000C87170470948406A40F080700749486263
:10188000704701460020054A92680A400AB10120CB
:1018900000E0002070470149887270470010024044
:1018A0000000FFF8FFFFF6FE0000424280044242C3
:1018B00000127A0000093D00680000207800002036
:1018C00010B50446FB48844209D101218803FFF783
:1018D000ADFF00214FF48040FFF7A8FF32E0F6484B
:1018E000844209D101214804FFF7ADFF00214FF4E4
:1018F0000030FFF7A8FF25E0F048844209D101211C
:101900008804FFF7A0FF00214FF48020FFF79BFF22
:1019100018E0EB48844209D10121C804FFF793FF86
:1019200000214FF40020FFF78EFF0BE0E5488442D2
:1019300008D101210805FFF786FF00214FF4801030
:10194000FFF781FF10BD2DE9F04786B005460E4632
:101950000024A24600BFA1460027B08900B100BF05
:101960002F462C8A4CF6FF700440F08804432C82EA
:10197000AC894EF6F3100440B08831890843718970
:1019800008430443AC81AC8A4FF6FF400440B08961
:101990000443AC8201A8FFF7C2FEC648874202D1C9
:1019A000DDF810A001E0DDF80CA0A88900F40040EB
:1019B00040B10AEBCA0000EB0A1031684900B0FBE5
:1019C000F1F807E00AEBCA0000EB0A103168890061
:1019D000B0FBF1F86420B8FBF0F0040120096421A9
:1019E00001FB1089A88900F4004040B1322000EBCF
:1019F000C900B0FBF1F000F00700044308E032201A
:101A000000EB09106421B0FBF1F000F00F0004437B
:101A10002C8106B0BDE8F0874FF41651016000211B
:101A20008180C18001810C21418100218181704729
:101A300010B502460020108A4FF2FF0318400B88B1
:101A40004C8823438C882343CC882343184310823B
:101A500010BD0021018041808180C180704721B18B
:101A6000828942F40052828104E082894DF6FF733C
:101A70001A4082817047F0B50346002400260025F5
:101A8000002040F66A17B94200D100BF1846C1F3E2
:101A9000421401F01F06012707FA06F5012C01D1B7
:101AA0000C3004E0022C01D1103000E014301AB1E7
:101AB00007682F43076002E00768AF430760F0BD87
:101AC0001AB1838A0B43838202E0838A8B43838229
:101AD0007047028A4FF6F0731A400282028A0A4364
:101AE0000282704782894FF2FF731A408281828995
:101AF0000A438281704721B1828942F002028281C9
:101B000004E082894FF6FD731A4082817047028A91
:101B10004FF6DF731A400282028A0A43028270473C
:101B200021B1028A42F48042028204E0028A4BF62A
:101B3000FF731A4002827047C1F308028280704727
:101B400001468888C0F308007047818941F001018F
:101B500081817047028BD2B20283028B42EA01225A
:101B600002837047028B02F47F420283028B0A4396
:101B70000283704721B1828A42F02002828204E00F
:101B8000828A4FF6DF731A408282704721B1828ABF
:101B900042F01002828204E0828A4FF6EF731A400C
:101BA0008282704721B1828A42F00802828204E078
:101BB000828A4FF6F7731A408282704721B1828978
:101BC00042F40042828103E08289C2F30E028281E4
:101BD000704721B1828A42F40062828204E0828AE4
:101BE0004FF2FF731A4082827047828A4FF6FB736E
:101BF0001A408282828A0A438282704721B1828A95
:101C000042F00202828204E0828A4FF6FD731A409B
:101C10008282704702460020B1F5007F00D100BFEC
:101C200013880B400BB1012000E00020704701F445
:101C30000072B2F5007F00D100BFCA430280704736
:101C400070B50246002400230025002040F66A16E5
:101C5000B14200D100BFC1F3421501F01F030126BC
:101C600006FA03F3012D02D19689334006E0022DD6
:101C700002D1168A334001E0968A33400C120126C5
:101C800006FA04F41688344013B10CB1012000E0C8
:101C9000002070BD10B50022002340F66A14A14256
:101CA00000D100BF0A1201249440A3B2DC43048097
:101CB00010BD0000003801400044004000480040D2
:101CC000004C00400050004031490143314A11604E
:101CD000704770B5002100230F22C47804B32D4C47
:101CE000246804F4E064C4F5E064210AC1F104034B
:101CF000CA40447804FA03F184781440214309016E
:101D0000254C0678A155047804F01F050124AC4049
:101D100005786D11AD0005F1E025C5F8004109E039
:101D2000047804F01F050124AC401C4D06787611A0
:101D300045F8264070BD1A4A0A400243154B1B1F46
:101D40001A60704739B1134A121D12680243114BD1
:101D50001B1D1A6006E00F4A121D126882430D4BCC
:101D60001B1D1A607047042808D14FF0E021096953
:101D700041F004014FF0E022116107E04FF0E02153
:101D8000096921F004014FF0E02211617047000061
:101D90000000FA050CED00E000E400E080E100E066
:101DA00080FFFF1F30B50B46014600202022012492
:101DB00009E021FA02F59D4205D303FA02F5491B19
:101DC00004FA02F52844151EA2F10102F1DC30BD2F
:101DD000064C074D06E0E06840F0010394E8070078
:101DE00098471034AC42F6D3FEF7A6F9901F0008CE
:101DF000B01F00080FB4054B10B503A9044A0298A0
:101E000000F018F810BC5DF814FB0000F50900089C
:101E10007C00002002E008C8121F08C1002AFAD185
:101E200070477047002001E001C1121F002AFBD15A
:101E3000704700002DE9FF4F89B09B4604460025FE
:101E400006E025280BD05A460B999047641C6D1C60
:101E500020780028F5D10DB02846BDE8F08F002786
:101E6000B8460122474900E0074314F8013F203BF0
:101E700002FA03F00842F7D120782E2819D114F87D
:101E8000010F47F004072A280ED06FF02F022078A8
:101E9000A0F1300109290CD808EB880102EB4101BF
:101EA00000EB0108641CF2E70A98641C50F8048BEC
:101EB0000A9020780028CED0642808D0692806D05F
:101EC00075281ED05A460B9990476D1C58E00A9908
:101ED0004FF00A0901C90A91002802DA40422D2177
:101EE00002E0390504D52B218DF82010012103E0F3
:101EF000F90704D02021F7E78A4608AE0DE000215B
:101F0000FAE70A994FF00A0901C90A91F7E7494629
:101F1000FFF748FF303106F8011D0028F7D1ADEB7F
:101F2000060000F12009780701D44FF00108C845E8
:101F300002DDA8EB090000E000208046002706E053
:101F400008A85A46C05D0B9990476D1C7F1C5745E9
:101F5000F6DB04E030205A460B9990476D1CB8F12F
:101F60000001A8F10108F5DC05E016F8010B5A465E
:101F70000B9990476D1CB9F10001A9F10109F4DC3E
:101F8000641C65E709280100000000000100000052
:101F9000B01F00080000002080000000141E000890
:101FA0003020000880000020880A0000241E00085D
:101FB00000A24A0400000000000000000102030427
:101FC00006070809000000000000000000000000F3
:101FD0000000000000000000000000000000000001
:101FE00000000000000000000000000000000000F1
:101FF00000000000000000000000000000000000E1
:1020000000000000000000000000000000000000D0
:1020100000000000000000000000000001020304B6
:102020000102030406070809020406080000000074
:0400000508000131BD
:00000001FF
